00100000         206351514000178000135705           02645X0000310271142XMUNICIPIO DE SAO JOSE DE RIBAMBANCO DO BRASIL SA                      21611201800120900023808100000CDC240000000000                                                      
0010000111201111201800010000001206351514000178      000135705           02645X0000310271142XMUNICIPIO DE SAO JOSE DE RIBAM01                                                                                                                    
0010001300001H0ROSECLEIA PACHECO COSTA             7303118632073031186320 1 2 00000000000000000 21012201872721311201210122018002391969002425036000063149000062019803637551           01000000000000000000                             00        
0010001300002H0DIEGO PINHEIRO DOS SANTOS           6002098836260020988362 1 2 00000000000000000 21012201872721911201210122018000550000000559482000015750000015465803880907           08000000000000000000                             00        
0010001300003H0EVA BEATRIZ GARCES ALVES            8287757231582877572315 1 2 00000000000000000 21012201872722011201210122018002000000002034459000057232000055992803946658           01000000000000000000                             00        
0010001300004H0INEZ RODRIGUES FRASAO               2694141439126941414391 1 2 00000000000000000 21012201872722311201210122018001500000001526117000037264000036608804181708           01000000000000000000                             00        
0010001300005H0ELINE FERREIRA GOMES                8752022234987520222349 1 2 00000000000000000 21012201872722611201210122018001932330001963005000054983000053822804298188           01000000000000000000                             00        
0010001300006H0ALLEN JOHNES NOGUEIRA NOJOSA        7362331835373623318353 1 2 00000000000000000 21012201872722711201210122018001066613001084415000029528000028904804357864           01000000000000000000                             00        
0010001300007H0DIEGO PINHEIRO DOS SANTOS           6002098836260020988362 1 2 00000000000000000 21012201872720512201210122018000200000000203411000005661000005471804753432           08000000000000000000                             00        
0010001300008H0ANTONIA DA SILVA                    8276088830482760888304 1 2 00000000000000000 21012201872720612201210122018001300000001322157000036767000035932804818033           01000000000000000000                             00        
0010001300009H0JEANE DUTRA BATISTA                 7520070832075200708320 1 2 00000000000000000 21012201872721012201210122018001000000001016997000028199000027619805008573           01000000000000000000                             00        
0010001300010H0SILVIA MENDES NASCIMENTO CORRE      4055124538740551245387 1 2 00000000000000000 21012201871721412201210012019001785660001816570000051361000099499805316979           01000000000000000000                             00        
0010001300011H0MARCOS JOSE LEITE VELOSO            0199645833701996458337 1 2 00000000000000000 21012201871722012201210012019001078274001094203000030804000059566805631747           01000000000000000000                             00        
0010001300012H0MARCIA HELENA RODRIGUES OLIVEI      3612918630436129186304 1 2 00000000000000000 21012201871722112201210012019000850000000864645000024324000047015805662334           02000000000000000000                             00        
0010001300013H0ANDERSON DA SILVA VIEIRA            9847687439198476874391 1 2 00000000000000000 21012201871720301201310012019001650792001674474000046665000090347806235465           02000000000000000000                             00        
0010001300014H0IRACEMA DO CARMO SERRA VIANA        4991046939149910469391 1 2 00000000000000000 21012201871720401201310012019000855000000869592000024217000046832806278189           01000000000000000000                             00        
0010001300015H0ANDREA DOS SANTOS ARAUJO            5708949333457089493334 1 2 00000000000000000 21012201870721101201310022019000200000000203468000005765000016617806685248           01000000000000000000                             00        
0010001300016H0DIEGO PINHEIRO DOS SANTOS           6002098836260020988362 1 2 00000000000000000 21012201870721401201310022019000200000000203462000005753000016473806765569           08000000000000000000                             00        
0010001300017H0DIEGO PINHEIRO DOS SANTOS           6002098836260020988362 1 2 00000000000000000 21012201870722101201310022019000150000000152584000004292000012400807141373           08000000000000000000                             00        
0010001300018H0DIEGO PINHEIRO DOS SANTOS           6002098836260020988362 1 2 00000000000000000 21012201870722501201310022019000200000000203436000005706000016463807379594           08000000000000000000                             00        
0010001300019H0NILTON CESAR SA MENEZES CASCAE      4324925631543249256315 1 2 00000000000000000 21012201870720402201310022019001359017001379626000038420000110435807828819           01000000000000000000                             00        
0010001300020H0DIEGO PINHEIRO DOS SANTOS           6002098836260020988362 1 2 00000000000000000 21012201869721402201310032019000320000000325528000009184000034812808330478           08000000000000000000                             00        
0010001300021H0ANGELA FERREIRA LIMA                4666129839146661298391 1 2 00000000000000000 21012201869721502201310032019002060000002095564000059079000223874808423997           01000000000000000000                             00        
0010001300022H0MARCELO FERREIRA OLIVEIRA           7072733337270727333372 1 2 00000000000000000 21012201869721902201310032019000351384000356448000010020000037993808600836           01000000000000000000                             00        
0010001300023H0ELISANDRA COELHO NERES              0000472735500004727355 1 2 00000000000000000 21012201869722002201310032019002307782002339193000065709000249123808666318           01000000000000000000                             00        
0010001300024H0EDNA PAULA DOS SANTOS MATOS         6777536531567775365315 1 2 00000000000000000 21012201869722502201310032019000820859000832892000023312000088382808905617           01000000000000000000                             00        
0010001300025H0EULALIA CRISTINA FRAZAO LIMA        7339979530073399795300 1 2 00000000000000000 21012201869722502201310032019002647371002685369000075162000284861808909018           02000000000000000000                             00        
0010001300026H0MOISES RODRIGUES DA SILVA           7240922332072409223320 1 2 00000000000000000 21012201869720403201310032019000785588000797287000022203000084172809188024           01000000000000000000                             00        
0010001300027H0ANA MARIA SANTOS DE OLIVEIRA        5164531933451645319334 1 2 00000000000000000 21012201869720403201310032019002576878002620124000067336000257095809226953           01000000000000000000                             00        
0010001300028H0PATRICIA LIMA ROCHA                 9881748534998817485349 1 2 00000000000000000 21012201869720603201310032019000665043000674360000018753000071030809322665           01000000000000000000                             00        
0010001300029H0JONILDES NASCIMENTO NUNES           4836599830048365998300 1 2 00000000000000000 21012201869720603201310032019002058952002092243000058181000220568809329016           01000000000000000000                             00        
0010001300030H0AMAURI FERREIRA SANTOS              9707100532097071005320 1 2 00000000000000000 21012201868721203201310042019001096492001111709000031478000147504809684732           02000000000000000000                             00        
0010001300031H0PAULO RODRIGUES DE SOUSA            1246501139112465011391 1 2 00000000000000000 21012201868721303201310042019000548695000558007000015788000074067809751674           02000000000000000000                             00        
0010001300032H0CONCEICAO DE MARIA SILVA SANTO      4063352730040633527300 1 2 00000000000000000 21012201868721403201310042019000815237000826429000023366000109579809815400           01000000000000000000                             00        
0010001300033H0VERIDIANA DE JESUS MUNIZ DA SI      0136895735801368957358 1 2 00000000000000000 21012201868721503201310042019000468174000476273000013456000063120809891785           01000000000000000000                             00        
0010001300034H0LEILA MARIA DIAS SANTOS             6555938030065559380300 1 2 00000000000000000 21012201868722203201310042019000135000000137324000003860000018143810278081           02000000000000000000                             00        
0010001300035H0LUCY LUANA SOUSA FROZ               67157890372701135      1 2 00000000000000000 21012201868720104201310042019000495113000502775000014032000065757811218782           06000000000000000000                             00        
0010001300036H0CELIA REGINA OLIVEIRA DE SOUZA      4059552836840595528368 1 2 00000000000000000 21012201868720204201310042019002220952002252698000057966000274071811770579           01000000000000000000                             00        
0010001300037H0NILTON CESAR SOUSA MORAES           3361500435333615004353 1 2 00000000000000000 21012201867721204201310052019001831744001857468000052556000292457812366908           02000000000000000000                             00        
0010001300038H0JOSANDILA ALVES DE SOUZA            6230280930062302809300 1 2 00000000000000000 21012201867721504201310052019000805939000817026000023067000128399812471419           01000000000000000000                             00        
0010001300039H0JEFFERSON HUALISON SANTOS TRIN      9657905630496579056304 1 2 00000000000000000 21012201867721604201310052019001543845001569950000044292000246587812547919           02000000000000000000                             00        
0010001300040H0MARIA LINDALVA FERREIRA FURTAD      8083148636880831486368 1 2 00000000000000000 21012201867722304201310052019001008690001023059000028718000159777812910947           01000000000000000000                             00        
0010001300041H0LAURO MARTINS NOGUEIRA              6173047535361730475353 1 2 00000000000000000 21012201867722504201310052019000975172000989269000027729000154350813052495           02000000000000000000                             00        
0010001300042H0ANDERSON ROGERIO FROTA CORREIA      00753822377990158      1 2 00000000000000000 21012201867723004201310052019001000000001017113000028407000158081813296960           01000000000000000000                             00        
0010001300043H0JEFFERSON HUALISON SANTOS TRIN      9657905630496579056304 1 2 00000000000000000 21012201867720205201310052019000070000000071196000001986000010973813359632           02000000000000000000                             00        
0010001300044H0ANDREA KAROLINE OLIVEIRA TEIXE      0471712531204717125312 1 2 00000000000000000 21012201867720705201310052019000748068000759023000021550000119576813598729           01000000000000000000                             00        
0010001300045H0SILVIA REGINA OLIVEIRA SILVA        2712676530427126765304 1 2 00000000000000000 21012201867721005201310052019002268203002306007000065324000362610813806110           01000000000000000000                             00        
0010001300046H0ADENILSE SOUSA                      8694433931586944339315 1 2 00000000000000000 21012201866722105201310062019001074012001089287000031322000200687814326945           01000000000000000000                             00        
0010001300047H0SUDARIO FIGUEIREDO PINHEIRO JU      9516614930095166149300 1 2 00000000000000000 21012201866722105201310062019001000000001017194000029249000187398814354627           01000000000000000000                             00        
0010001300048H0LUCIEIDE ARAUJO FERREIRA            7971093039779710930397 1 2 00000000000000000 21012201866722305201310062019002940563002987360000085773000549371814479294           01000000000000000000                             00        
0010001300049H0ANA CLEIDES FERREIRA DA SILVA       4945910430449459104304 1 2 00000000000000000 21012201866722405201310062019000485926000492946000014143000090557814543721           01000000000000000000                             00        
0010001300050H0SOLANGE DA SILVA BRANDAO CARVA      8956975035989569750359 1 2 00000000000000000 21012201866720306201310062019000904330000917097000026116000167248814927739           01000000000000000000                             00        
0010001300051H0EDIVANA VALERIA ROSA SIQUEIRA       0037058630100370586301 1 2 00000000000000000 21012201866720706201310062019002013203002043615000055264000356418815234254           01000000000000000000                             00        
0010001300052H0LUCIANA SULENE PEREIRA FRAZAO       0249319730502493197305 1 2 00000000000000000 21012201866721006201310062019003014741003056557000078258000508384815301264           01000000000000000000                             00        
0010001300053H0INAILDES PEREIRA MATOS              3770863534937708635349 1 2 00000000000000000 21012201865720407201310072019001305571001327777000038188000276073816802091           02000000000000000000                             00        
0010001300054H0LUIS DE FRANCA LISBOA NETO          9375058735393750587353 1 2 00000000000000000 21012201865720807201310072019001699178001716140000049208000355670817049741           01000000000000000000                             00        
0010001300055H0ADILSON JOSE DA SILVA CANTANHE      80461786320701317      1 2 00000000000000000 21012201865721007201310072019002010363002035770000058284000421300817127415           01000000000000000000                             00        
0010001300056H0FRANCILENE FRAZAO GOMES             3548732135335487321353 1 2 00000000000000000 21012201864721707201310082019001150324001156869000033732000271259817591533           01000000000000000000                             00        
0010001300057H0MARINILDE ALVES MESQUITA            2716972338727169723387 1 2 00000000000000000 21012201864721807201310082019002410753002442078000071151000572311817621795           01000000000000000000                             00        
0010001300058H0LUIS AUGUSTO MONROE GARCES          0105551538001055515380 1 2 00000000000000000 21012201864721907201310082019001672186001685372000049067000394633817693241           01000000000000000000                             00        
0010001300059H0RAYANNA ESTERLINA COELHO DA SI      6028074934160280749341 1 2 00000000000000000 21012201864722307201310082019001516842001522057000041588000337954817829692           01000000000000000000                             00        
0010001300060H0LUZIA MARIA PESSOA CAMPOS           4593670632045936706320 1 2 00000000000000000 21012201864722607201310082019000600000000610270000017673000142078817951812           04000000000000000000                             00        
0010001300061H0KENIA ELAINE DOS SANTOS HOMEM       7809576038278095760382 1 2 00000000000000000 21012201864720208201310082019000893098000898889000025892000208289818232588           01000000000000000000                             00        
0010001300062H0ALESSANDRA FERREIRA BERNARDES       7145379236871453792368 1 2 00000000000000000 21012201864720508201310082019002050000002084845000059917000481831818337115           01000000000000000000                             00        
0010001300063H0ROSE MARIE CARNEIRO SOUZA           3250347434932503474349 1 2 00000000000000000 21012201864720908201310082019004371572004420273000113244000928758818545796           01000000000000000000                             00        
0010001300064H0RUBIA FLAVIANNE DA SILVA CABRA      4834287432048342874320 1 2 00000000000000000 21012201863721208201310092019000964403000969069000028364000250653818661027           01000000000000000000                             00        
0010001300065H0BRENO AUGUSTO FREITAS MARTINS       0044133936000441339360 1 2 00000000000000000 21012201863721308201310092019001968900001981877000052998000476313818691495           01000000000000000000                             00        
0010001300066H0MARIA DA CONCEICAO PEREIRA SIL      8049583430080495834300 1 2 00000000000000000 21012201863721608201310092019001964834001977199000057695000509885818888933           01000000000000000000                             00        
0010001300067H0JOSE RIBAMAR MARVAO FREITAS         2352530431523525304315 1 2 00000000000000000 21012201863722008201310092019001000000001017187000029591000261585819010628           01000000000000000000                             00        
0010001300068H0MARIA JOSE DINIZ                    2906013331529060133315 1 2 00000000000000000 21012201863722208201310092019001616110001621602000047103000416298819122841           02000000000000000000                             00        
0010001300069H0MARIA DE NAZARE BEZERRA DA SIL      2883108030028831080300 1 2 00000000000000000 21012201863722308201310092019002916612002921773000084804000749578819182701           01000000000000000000                             00        
0010001300070H0DOMINGOS DOS SANTOS SILVA           2378026633423780266334 1 2 00000000000000000 21012201863722608201310092019001516883001533999000044423000392584819253540           02000000000000000000                             00        
0010001300071H0MARIA DAS DORES SOUSA PIMENTEL      2710940230427109402304 1 2 00000000000000000 21012201863722808201310092019001050000001067947000030879000272968819373882           01000000000000000000                             00        
0010001300072H0ALTAMIRES DE JESUS PINHO FONSE      2904530436829045304368 1 2 00000000000000000 21012201863722808201310092019000846645000856900000024777000218986819375698           01000000000000000000                             00        
0010001300073H0ALDAIRES SILVEIRA DE AZEVEDO D      5637597235356375972353 1 2 00000000000000000 21012201863720309201310092019001605100001632420000046986000415256819555974           01000000000000000000                             00        
0010001300074H0VALTERLAN RAMALHO AGUIAR            0028265939000282659390 1 2 00000000000000000 21012201863720609201310092019002317313002320540000066639000589063819757469           01000000000000000000                             00        
0010001300075H0JOAO DANIEL NOGUEIRA DIAS           0040795330200407953302 1 2 00000000000000000 21012201862721109201310102019001900000001933171000050258000494946819940291           01000000000000000000                             00        
0010001300076H0WILLIAN CARVALHO MARTINS            0050224131400502241314 1 2 00000000000000000 21012201862721209201310102019003020000003072693000079833000786220820037659           01000000000000000000                             00        
0010001300077H0MARCIO WENDELL COSTA CORREA         5713316637257133166372 1 2 00000000000000000 21012201862721309201310102019001771481001790748000043972000437760820098572           03000000000000000000                             00        
0010001300078H0MARCIA HELENA RODRIGUES OLIVEI      3612918630436129186304 1 2 00000000000000000 21012201862721709201310102019000700000000712175000018446000181630820231837           02000000000000000000                             00        
0010001300079H0ANA CAROLINA SOUSA BARROS           6398590031063985900310 1 2 00000000000000000 21012201862721809201310102019002291644002300462000054674000547438820276302           01000000000000000000                             00        
0010001300080H0MARIA JOSE PEREIRA DINIZ DA SI      8818591533488185915334 1 2 00000000000000000 21012201862722509201310102019001080466001084450000027948000275229820687111           01000000000000000000                             00        
0010001300081H0RILSA CARME SANTOS MAIA             6676900033466769000334 1 2 00000000000000000 21012201862720110201310102019001185080001188626000030518000300579820939368           01000000000000000000                             00        
0010001300082H0GISELE COSTA                        9464156031594641560315 1 2 00000000000000000 21012201862720210201310102019002525410002530016000064918000639337820985658           02000000000000000000                             00        
0010001300083H0ROSANGELA FERREIRA DOS SANTOS       2498029338724980293387 1 2 00000000000000000 21012201862720910201310102019000400000000406862000010394000102385821269315           03000000000000000000                             00        
0010001300084H0ADALBERTO FERREIRA CAMPOS JUNI      6733336235367333362353 1 2 00000000000000000 21012201861721410201310112019003030676003042951000079011000841228821466817           02000000000000000000                             00        
0010001300085H0EURANDIR DE JESUS SANTOS            1281500437212815004372 1 2 00000000000000000 21012201861721510201310112019001565816001571404000040776000434187821541630           01000000000000000000                             00        
0010001300086H0JOSE ROGERIO SANTOS AZEVEDO         4928922530049289225300 1 2 00000000000000000 21012201861721610201310112019002968256002985678000077427000824388821651756           01000000000000000000                             00        
0010001300087H0ROSE MAIRY DE JESUS MATOS           8193591933481935919334 1 2 00000000000000000 21012201861721710201310112019004095677004099924000106256001131359821695807           02000000000000000000                             00        
0010001300088H0ANA AMELIA ALVES SANTOS             3367462039133674620391 1 2 00000000000000000 21012201861721710201310112019007095517007113330000166700001812638821716703           01000000000000000000                             00        
0010001300089H0CELIA REGINA FERREIRA COSTA         9270135330092701353300 1 2 00000000000000000 21012201861721810201310112019001095554001097966000028438000302772821812002           01000000000000000000                             00        
0010001300090H0DELZA ANDREIA GODINHO GOMES         7246421637272464216372 1 2 00000000000000000 21012201861722210201310112019003973466003985684000095997001037334821988517           01000000000000000000                             00        
0010001300091H0CARLOS EDUARDO DE CARVALHO ARA      0064494233900644942339 1 2 00000000000000000 21012201861722210201310112019001000000001017350000026284000279862822009485           01000000000000000000                             00        
0010001300092H0DANIELE VIEIRA SILVA                8424174836884241748368 1 2 00000000000000000 21012201861722510201310112019001000000001017318000026234000279333822216689           01000000000000000000                             00        
0010001300093H0GRACA MARIA SCRIVENER FURTADO       2521106437225211064372 1 2 00000000000000000 21012201861723110201310112019001934680001939165000049819000530484822480683           02000000000000000000                             00        
0010001300094H0GISELE COSTA                        9464156031594641560315 1 2 00000000000000000 21012201861720411201310112019000240442000243388000006237000066446822631382           02000000000000000000                             00        
0010001300095H0JOSE WILQUE SANTOS DINIZ            0217474632802174746328 1 2 00000000000000000 21012201861960511201310112021001554764001568699000035649000924879822704325           02000000000000000000                             00        
0010001300096H0SILVANIA DOS REMEDIOS MARQUES       3318008338733180083387 1 2 00000000000000000 21012201861770511201310042020009079899009086694000225645003254749822730988           01000000000000000000                             00        
0010001300097H0ROSANGELA RIBEIRO DA SILVA          2803704935328037049353 1 2 00000000000000000 21012201861960611201310112021001449200001468720000031212000835237822776268           01000000000000000000                             00        
0010001300098H0RUBEM JOSE RIBEIRO                  6561477138765614771387 1 2 00000000000000000 21012201861960611201310112021003260894003271352000074295001927601822782821           02000000000000000000                             00        
0010001300099H0ZILDA DIAS FONSECA                  0745791034407457910344 1 2 00000000000000000 21012201861960611201310112021002692366002711516000061581001597691822787474           01000000000000000000                             00        
0010001300100H0JOSE LUIS SILVA SANTOS FILHO        5057102834950571028349 1 2 00000000000000000 21012201861720611201310112019000150000000152578000003905000041605822791404           06000000000000000000                             00        
0010001300101H0MARIA DEUSA LIMA DE JESUS           8732077033487320770334 1 2 00000000000000000 21012201861960711201310112021002994705003009149000068298001771936822824684           01000000000000000000                             00        
0010001300102H0ADALBERTO FERREIRA CAMPOS JUNI      6733336235367333362353 1 2 00000000000000000 21012201861960711201310112021000390994000397796000009029000234211822845887           02000000000000000000                             00        
0010001300103H0MAGELA CONCEICAO GONCALVES OLI      4940935230449409352304 1 2 00000000000000000 21012201861960711201310112021004987022005008066000102613002791638822856926           01000000000000000000                             00        
0010001300104H0GIOVANNI FRANCO DE SA               3344653938733446539387 1 2 00000000000000000 21012201860601111201310122018000796343000802401000022651000022194822978363           01000000000000000000                             00        
0010001300105H0LUIS CARLOS PINHEIRO MARTINS        8043750831580437508315 1 2 00000000000000000 21012201860601111201310122018000891406000900060000025407000024986823005519           02000000000000000000                             00        
0010001300106H0MARIA JOSE DA SILVA CASTRO          4378313936843783139368 1 2 00000000000000000 21012201860961111201310122021001279412001283111000029599000782725823020911           01000000000000000000                             00        
0010001300107H0GIZELDA RODRIGUES FERREIRA          6641295133466412951334 1 2 00000000000000000 21012201860961111201310122021001307049001314941000028339000773594823021845           02000000000000000000                             00        
0010001300108H0SHEILA DE JESUS CANTUARES LIMA      5056588539150565885391 1 2 00000000000000000 21012201860961211201310122021001336437001345300000028977000791003823056047           02000000000000000000                             00        
0010001300109H0SINERES PAIXAO                      4834251330048342513300 1 2 00000000000000000 21012201860961211201310122021003589862003601328000083024002195518823078390           03000000000000000000                             00        
0010001300110H0ALINE BRANDAO DOS SANTOS            7749529233477495292334 1 2 00000000000000000 21012201860841311201310122020001428229001434861000032702000661491823126964           02000000000000000000                             00        
0010001300111H0ELINEUTON SOUSA BASTOS              0031115632000311156320 1 2 00000000000000000 21012201860961311201310122021001533474001544052000035574000940728823142720           02000000000000000000                             00        
0010001300112H0SILVANDIRA FERREIRA PINHEIRO        8785955639187859556391 1 2 00000000000000000 21012201860721311201310122019002256305002272031000058994000674338823152068           01000000000000000000                             00        
0010001300113H0OLGA DE JESUS MARTINS NEVES DO      3044520533430445205334 1 2 00000000000000000 21012201860961311201310122021001189370001192039000027464000726235823156946           02000000000000000000                             00        
0010001300114H0ANA CARLA RIBEIRO GONCALVES         6517521232065175212320 1 2 00000000000000000 21012201860961411201310122021006971821006984302000160812004252743823190393           02000000000000000000                             00        
0010001300115H0LUIS MAGNO COSTA MUNIZ              7630333030476303330304 1 2 00000000000000000 21012201860961411201310122021002469852002479263000057085001509578823230594           03000000000000000000                             00        
0010001300116H0BERENICE GARCES JUREMA              2889426033028894260330 1 2 00000000000000000 21012201860601811201310122018001000000001017364000026118000025732823323622           01000000000000000000                             00        
0010001300117H0EDNA CRISTINA DE SOUSA CRUZ         7754080834977540808349 1 2 00000000000000000 21012201860801811201310082020001394812001400727000032562000571032823331912           01000000000000000000                             00        
0010001300118H0VERA LUCIA VIEIRA DOS SANTOS        2930085134929300851349 1 2 00000000000000000 21012201860961911201310122021001968368001977380000045387001200266823381327           03000000000000000000                             00        
0010001300119H0EDSON LIMA RABELO FILHO             4082098038240820980382 1 2 00000000000000000 21012201860871911201310032021002104187002108420000050226001084248823386306           01000000000000000000                             00        
0010001300120H0NILDENIR DE JESUS PINTO LOPES       8421764233484217642334 1 2 00000000000000000 21012201860842011201310122020001048996001062979000025668000507643823433757           01000000000000000000                             00        
0010001300121H0MARYLUCIA DA SILVA MIRANDA          8213191030482131910304 1 2 00000000000000000 21012201860722011201310122019001566769001577185000040773000466121823452175           01000000000000000000                             00        
0010001300122H0GRACELAINE DO NASCIMENTO LIMA       0292923538102929235381 1 2 00000000000000000 21012201860962011201310122021001588895001593047000036543000966326823457687           01000000000000000000                             00        
0010001300123H0AFRA CEMIRIA DA SILVA BARBOSA       2801618136828016181368 1 2 00000000000000000 21012201860962011201310122021001341370001365051000029271000798975823468647           01000000000000000000                             00        
0010001300124H0LINDALVA DE JESUS BATISTA DA S      4834293939148342939391 1 2 00000000000000000 21012201860722111201310122019003590927003608562000093230001065766823489409           01000000000000000000                             00        
0010001300125H0RAIMUNDA NONATA SILVA AMARAL        7568959635375689596353 1 2 00000000000000000 21012201860962211201310122021003139126003144556000072042001905193823588634           02000000000000000000                             00        
0010001300126H0CLAUDIA FERNANDA MORAES ROCHA       4770442033047704420330 1 2 00000000000000000 21012201860962211201310122021000400000000407017000009325000246579823597089           05000000000000000000                             00        
0010001300127H0MARIA PEDRA DE SOUSA SANTOS DE      4532321638745323216387 1 2 00000000000000000 21012201860602611201310122018001300000001322407000034706000034140823721932           01000000000000000000                             00        
0010001300128H0IVANILDE DE JESUS MORAIS ROCHA      2820470033428204700334 1 2 00000000000000000 21012201860792811201310072020001287002001297430000031995000528772823815992           01000000000000000000                             00        
0010001300129H0ANA RUTH BORRALHO ROSENDO           9720338636897203386368 1 2 00000000000000000 21012201860962911201310122021001773391001775979000037890001034291823883469           01000000000000000000                             00        
0010001300130H0HERBERTH DOS SANTOS DE OLIVEIR      7381955733473819557334 1 2 00000000000000000 21012201860962911201310122021003500000003561434000077075002089903823891246           01000000000000000000                             00        
0010001300131H0SARA VERAS FROTA                    2694125239126941252391 1 2 00000000000000000 21012201860720212201310122019004856262004875596000125104001430024823948351           01000000000000000000                             00        
0010001300132H0PAULO HENRIQUE BOUCINHAS PACHE      2166594034421665940344 1 2 00000000000000000 21012201860810212201310092020002209008002220696000050114000918355823974934           01000000000000000000                             00        
0010001300133H0HILMA MACHADO LIMA                  2723656039127236560391 1 2 00000000000000000 21012201860910312201310072021005793334005798889000138624003262737824024631           02000000000000000000                             00        
0010001300134H0MARIA DO CARMO GOUVEIA GOMES        6891118131568911181315 1 2 00000000000000000 21012201860960412201310122021001027194001031440000024185000630130824071394           01000000000000000000                             00        
0010001300135H0GRACA MARIA ALVES CARVALHO          40880524391104025      1 2 00000000000000000 21012201860960412201310122021002428400002439833000050802001400777824085004           02000000000000000000                             00        
0010001300136H0MARIA JOSE PEREIRA MUNIZ            8982992138789829921387 1 2 00000000000000000 21012201860600412201310122018002237978002248280000057857000056957824108423           01000000000000000000                             00        
0010001300137H0ELIANE CASTRO AMARAL                4836219035348362190353 1 2 00000000000000000 21012201860850612201310012021001303046001310492000032074000646981824195347           01000000000000000000                             00        
0010001300138H0JOSE RAIMUNDO SILVA                 7288949737272889497372 1 2 00000000000000000 21012201860960612201310122021001741272001744743000040857001064499824212251           01000000000000000000                             00        
0010001300139H0MARIA DE FATIMA BATISTA TRINDA      2804617033028046170330 1 2 00000000000000000 21012201860960912201310122021004584379004610609000097468002665061824304281           01000000000000000000                             00        
0010001300140H0SILVIA MARGARETHE DIAS FONTES       7460643335374606433353 1 2 00000000000000000 21012201860961012201310122021003163827003184678000066095001822527824370259           01000000000000000000                             00        
0010001300141H0MARIA DO LIVRAMENTO SOUSA VIEI      4833707233448337072334 1 2 00000000000000000 21012201860961012201310122021004362810004366935000090632002499077824383612           02000000000000000000                             00        
0010001300142H0RAIMUNDO NONATO DE SOUSA SILVA      3311625331533116253315 1 2 00000000000000000 21012201859601312201310012019001827094001847947000049375000096363824685004           01000000000000000000                             00        
0010001300143H0ROBERVAL SOUSA COSTA                2725783534927257835349 1 2 00000000000000000 21012201859741312201310032020003252983003262419000085927001168538824694689           02000000000000000000                             00        
0010001300144H0RUTH DE JESUS SILVA SOUZA           3250303232032503032320 1 2 00000000000000000 21012201859881312201310052021001794869001805925000044309000995173824699847           03000000000000000000                             00        
0010001300145H0MARIA CLARISMAR SOUSA DOS SANT      8756931034987569310349 1 2 00000000000000000 21012201859961312201310012022002780736002788024000066320001759399824703149           01000000000000000000                             00        
0010001300146H0JOSE LUIS SILVA SANTOS FILHO        5057102834950571028349 1 2 00000000000000000 21012201859961312201310012022000111812000113778000002706000071847824713019           06000000000000000000                             00        
0010001300147H0ANALICE FERREIRA MELO               3346650537233466505372 1 2 00000000000000000 21012201859961612201310012022003727700003748599000078861002216985824775951           02000000000000000000                             00        
0010001300148H0MARIA LEONARDA CASTRO DOS SANT      1768132437217681324372 1 2 00000000000000000 21012201859961612201310012022004152863004168679000098967002625618824784268           02000000000000000000                             00        
0010001300149H0EDSON JERONIMO LIMA DA SILVA        0035204834400352048344 1 2 00000000000000000 21012201859961612201310012022002727900002735342000057544001617780824790533           02000000000000000000                             00        
0010001300150H0MARIA DE NAZARE DE JESUS FERRE      0031134530100311345301 1 2 00000000000000000 21012201859791912201310082020002382707002395421000061098001041479825058616           01000000000000000000                             00        
0010001300151H0ROSE MARY MELO SILVA                4375265930043752659300 1 2 00000000000000000 21012201859961912201310012022003130984003143256000066018001856008825070821           01000000000000000000                             00        
0010001300152H0MARIA CRISTINA PEREIRA DIAS         2487157534924871575349 1 2 00000000000000000 21012201859962012201310012022000534036000538528000012752000338266825162769           02000000000000000000                             00        
0010001300153H0CLEOCY MARQUES DA SILVA             2554762333418054505723 1 2 00000000000000000 21012201859962012201310012022001578353001580878000037433000993108825166993           01000000000000000000                             00        
0010001300154H0MARCIO ROBERTO TRINDADE MONROE      0147765838601477658386 1 2 00000000000000000 21012201859962012201310012022001136459001140842000027014000716629825179977           01000000000000000000                             00        
0010001300155H0WENISON CARDOSO SILVA               9681721632096817216320 1 2 00000000000000000 21012201859962312201310012022001181700001189260000028105000745617825246783           03000000000000000000                             00        
0010001300156H0PAULA ROSA SOUZA SANTOS             47462957353104180      1 2 00000000000000000 21012201859962312201310012022001677459001684458000039808001056054825338505           03000000000000000000                             00        
0010001300157H0ROSANGELA FERREIRA DOS SANTOS       2498029338724980293387 1 2 00000000000000000 21012201859962612201310012022001000000001017470000023998000636669825435940           03000000000000000000                             00        
0010001300158H0CONCEICAO DE MARIA RIBEIRO SAN      3047212139130472121391 1 2 00000000000000000 21012201859962612201310012022001168492001177227000027766000736647825436398           01000000000000000000                             00        
0010001300159H0MARIA DO ROSARIO FERREIRA DA S      0769728731507697287315 1 2 00000000000000000 21012201859602612201310012019000944054000951061000027224000052950825441194           02000000000000000000                             00        
0010001300160H0SILVIA HELENA NOJOSA NEVES          2694187234926941872349 1 2 00000000000000000 21012201859963012201310012022003826751003891739000091551002428832825618928           01000000000000000000                             00        
0010001300161H0ARIVALDO CARVALHO NEVES             2368881530023688815300 1 2 00000000000000000 21012201859963012201310012022003103328003129474000073619001953127825621993           02000000000000000000                             00        
0010001300162H0ALBENIAS RODRIGUES LIMA             0319319636303193196363 1 2 00000000000000000 21012201859963012201310012022002995408003010433000062853001766940825651261           04000000000000000000                             00        
0010001300163H0DEILSON FERREIRA SILVA              4502752835345027528353 1 2 00000000000000000 21012201859963112201310012022003400472003410805000080185002127284825669445           01000000000000000000                             00        
0010001300164H0GALDINA MARIA COSTA SOUZA           2532197838725321978387 1 2 00000000000000000 21012201859960201201410012022002658878002673669000062773001665420825715446           02000000000000000000                             00        
0010001300165H0FABIO DOS SANTOS SILVA              7295002138772950021387 1 2 00000000000000000 21012201859960701201410012022001100000001119087000026189000694741825896619           01000000000000000000                             00        
0010001300166H0SANA HELIA GOUVEIA FERREIRA         7518388936875183889368 1 2 00000000000000000 21012201859850801201410022021002148848002185095000053411001108698825947761           02000000000000000000                             00        
0010001300167H0ALZIRA CUNHA ARAGAO                 8383411731583834117315 1 2 00000000000000000 21012201859960801201410012022001643183001663510000038904001032073825969088           01000000000000000000                             00        
0010001300168H0JOSE NOGUEIRA ARAUJO DE LIMA        8790337735387903377353 1 2 00000000000000000 21012201859960801201410012022001024131001036270000024235000642910825983048           01000000000000000000                             00        
0010001300169H0JOEL CANTANHEDE JUNIOR              8386825936883868259368 1 2 00000000000000000 21012201859960801201410012022002337782002346453000054875001455865825984341           01000000000000000000                             00        
0010001300170H0ROSENILDE NUNES DE SOUSA            4056089930040560899300 1 2 00000000000000000 21012201859961001201410012022001500000001525983000035641000945516826081132           01000000000000000000                             00        
0010001300171H0ROZA MARIA DA SILVA DOS SANTOS      2930573031029305730310 1 2 00000000000000000 21012201859961001201410012022003056134003072897000064925001668689826127522           01000000000000000000                             00        
0010001300172H0EDILENE SANTOS SALGADO DIAS         6771296733467712967334 1 2 00000000000000000 21012201858961401201410022022001788943001820407000043274001168230826263414           02000000000000000000                             00        
0010001300173H0SILVIA ELY MARTINS BARBOSA          8538939033485389390334 1 2 00000000000000000 21012201858961401201410022022001250982001260724000027536000775018826283661           01000000000000000000                             00        
0010001300174H0TEREZA DE JESUS ANJOS DE JESUS      1786048230417860482304 1 2 00000000000000000 21012201858961501201410022022003314447003324180000078970002131806826314944           01000000000000000000                             00        
0010001300175H0LUIS FERNANDO DOS SANTOS DE JE      9997849035399978490353 1 2 00000000000000000 21012201858611501201410032019000800000000813792000023494000089476826347129           02000000000000000000                             00        
0010001300176H0ANGELA MARIA FERREIRA GOMES         2909795934929097959349 1 2 00000000000000000 21012201858961601201410022022001118009001137776000024822000698639826370037           01000000000000000000                             00        
0010001300177H0ELINEUTON SOUSA BASTOS              0031115632000311156320 1 2 00000000000000000 21012201858751701201410052020000110000000111914000002923000043846826450727           02000000000000000000                             00        
0010001300178H0FRANCYCARLA ALVES MORAES            7674417530076744175300 1 2 00000000000000000 21012201858962101201410022022001660000001689083000039969001078995826582966           01000000000000000000                             00        
0010001300179H0SILVIA HELENA ARAUJO DE LIMA        7423399833474233998334 1 2 00000000000000000 21012201858962201201410022022003166222003178974000075176002029353826626928           01000000000000000000                             00        
0010001300180H0NEIDE MARIA MORAES SOUZA            3476059812034760598120 1 2 00000000000000000 21012201858852201201410032021000866266000877075000021678000462530826640880           02000000000000000000                             00        
0010001300181H0DOMINGOS CARLOS GARCEZ DE MACE      4302640073443026400734 1 2 00000000000000000 21012201858962301201410022022001161398001167520000027591000744855826683358           02000000000000000000                             00        
0010001300182H0EDUARDO SOCRATES SOARES DE OLI      4073325434940733254349 1 2 00000000000000000 21012201858832301201410012021000979116000986079000024585000495896826690693           01000000000000000000                             00        
0010001300183H0JOSEMAR SILVA FEITOSA               0178209830501782098305 1 2 00000000000000000 21012201858962401201410022022002537176002565160000060581001635417826748108           01000000000000000000                             00        
0010001300184H0REGINA MARIA SILVA AZEVEDO          0066419336600664193366 1 2 00000000000000000 21012201858962701201410022022004148903004184223000098625002662379826839267           02000000000000000000                             00        
0010001300185H0CELIA REGINA SERRA PINTO            4319725638743197256387 1 2 00000000000000000 21012201858962801201410022022004137504004157292000097926002643535826895959           02000000000000000000                             00        
0010001300186H0ANGELA MARIA SILVA FURTADO          4666237534946662375349 1 2 00000000000000000 21012201858963001201410022022004140605004165621000097994002645372826986262           02000000000000000000                             00        
0010001300187H0JOSE ROBERTO DE SOUSA SILVA         4532694035345326940353 1 2 00000000000000000 21012201858963001201410022022001900811001925218000045290001222581826998501           01000000000000000000                             00        
0010001300188H0DORIEDSON PINHEIRO FERREIRA         7225784935372257849353 1 2 00000000000000000 21012201858600302201410022019002402324002410569000062065000180575827104814           01000000000000000000                             00        
0010001300189H0ELIANE POVOAS FERREIRA              8376404636883764046368 1 2 00000000000000000 21012201858720302201410022020001104420001112825000029269000376634827114543           01000000000000000000                             00        
0010001300190H0DEUSIMAR DE MARIA DOS SANTOS P      9566336330095663363300 1 2 00000000000000000 21012201858960302201410022022000866989000880902000020669000557920827141240           01000000000000000000                             00        
0010001300191H0DORALICE SILVA FERREIRA             2929707933429297079334 1 2 00000000000000000 21012201858960402201410022022003980921003992179000094877002543627827166871           02000000000000000000                             00        
0010001300192H0ARIVALDO CARVALHO NEVES             2368881530023688815300 1 2 00000000000000000 21012201858960402201410022022000370000000376423000008946000239840827171943           02000000000000000000                             00        
0010001300193H0DOMINGAS DE FATIMA SILVA FERNA      0674920830406749208304 1 2 00000000000000000 21012201858960402201410022022003997403004014531000083589002394330827191352           01000000000000000000                             00        
0010001300194H0ALBENIAS RODRIGUES LIMA             0319319636303193196363 1 2 00000000000000000 21012201858960402201410022022000111724000113662000002701000072451827202727           04000000000000000000                             00        
0010001300195H0MYRCEA MARTINS CONDE                7870776530478707765304 1 2 00000000000000000 21012201858960402201410022022000984543000986987000023456000628914827205038           03000000000000000000                             00        
0010001300196H0IRLENE MONROE PEREIRA               7044466834970444668349 1 2 00000000000000000 21012201858960502201410022022001202409001204317000028602000766856827235448           02000000000000000000                             00        
0010001300197H0LUIS FERNANDO FONSECA DIAS          0098057634200980576342 1 2 00000000000000000 21012201858800502201410102020003873554003889008000087867001672251827242009           01000000000000000000                             00        
0010001300198H0RAIMUNDA ESTELITA BRITO FACUND      2817413539128174135391 1 2 00000000000000000 21012201858960502201410022022004367056004384239000092890002637334827253062           01000000000000000000                             00        
0010001300199H0MICHELE ARAUJO SOUSA ASSIS          6560343537265603435372 1 2 00000000000000000 21012201858600602201410022019002664762002682463000068960000200646827305496           01000000000000000000                             00        
0010001300200H0SURIANE ROCHA DA SILVA              6466319130464663191304 1 2 00000000000000000 21012201858960602201410022022002525731002533222000060123001611968827307732           01000000000000000000                             00        
0010001300201H0NELIO RODRIGUES DIAS                7466790437274667904372 1 2 00000000000000000 21012201858960602201410022022001236641001242357000029486000790530827312012           01000000000000000000                             00        
0010001300202H0MARLY FELEX PORTELA                 4500891439145008914391 1 2 00000000000000000 21012201858960702201410022022000379160000382633000009075000243347827368021           01000000000000000000                             00        
0010001300203H0IRLES ARAUJO SA MENEZES             5505191037855051910378 1 2 00000000000000000 21012201858960702201410022022008007527008031866000190501005107373827399089           01000000000000000000                             00        
0010001300204H0JULIA MARCIA GUIMARAES MACHADO      2516220936825162209368 1 2 00000000000000000 21012201858961002201410022022003924828003939070000081752002341635827486152           02000000000000000000                             00        
0010001300205H0MARIA DOS SANTOS MACEDO SOUSA       3361290031533612900315 1 2 00000000000000000 21012201857961102201410032022001112833001127196000027166000740556827563918           02000000000000000000                             00        
0010001300206H0ELENILDE SILVA DOS SANTOS           1770478230417704782304 1 2 00000000000000000 21012201857961102201410032022001929601001945480000046887001278164827564406           01000000000000000000                             00        
0010001300207H0ELISSANDRA LISBOA SERRA PINHEI      9497419538794974195387 1 2 00000000000000000 21012201857961202201410032022001643644001651745000036056001032869827674815           02000000000000000000                             00        
0010001300208H0NAIDE DE JESUS FERREIRA             3360751639133607516391 1 2 00000000000000000 21012201857721302201410032020000857584000867477000023350000316586827704878           01000000000000000000                             00        
0010001300209H0EDSON JERONIMO LIMA DA SILVA        0035204834400352048344 1 2 00000000000000000 21012201857871302201410062021000400000000406997000010139000231960827715450           02000000000000000000                             00        
0010001300210H0SINELANDIA DE FATIMA GUSMAO SO      2924827230429248272304 1 2 00000000000000000 21012201857861702201410052021003529244003534652000088202001970040827865562           02000000000000000000                             00        
0010001300211H0PEDRO RIBEIRO COSTA                 1001552334910015523349 1 2 00000000000000000 21012201857961802201410032022001634002001642265000039395001073940827936904           01000000000000000000                             00        
0010001300212H0JOAQUINA RODRIGUES ROCHA            2752808135327528081353 1 2 00000000000000000 21012201857721802201410032020001067960001071193000028738000389578827942369           01000000000000000000                             00        
0010001300213H0ALAN MONTEIRO SILVA                 8670268833486702688334 1 2 00000000000000000 21012201857901902201410092021002639327002654537000057220001482279827990185           01000000000000000000                             00        
0010001300214H0ROGERIO PEREIRA COSTA               7863139430078631394300 1 2 00000000000000000 21012201857961902201410032022001827954001836703000044030001200277827991478           02000000000000000000                             00        
0010001300215H0SORAYA DE RIBAMAR VIANA BRAGA       8390408538783904085387 1 2 00000000000000000 21012201857841902201410032021002954375002958385000074386001578983828014655           01000000000000000000                             00        
0010001300216H0MARIA SOLANGE CARDOSO DA SILVA      2689321530426893215304 1 2 00000000000000000 21012201857962002201410032022001496192001509826000036170000986007828077795           01000000000000000000                             00        
0010001300217H0ROSANGELA DO LIVRAMENTO SOUSA       6555308036365553080363 1 2 00000000000000000 21012201857962402201410032022003975461004009469000083847002445413828213943           01000000000000000000                             00        
0010001300218H0JOSE LUIS SILVA SANTOS FILHO        5057102834950571028349 1 2 00000000000000000 21012201857962402201410032022000111756000113703000002717000074017828215254           06000000000000000000                             00        
0010001300219H0SANA HELIA GOUVEIA FERREIRA         7518388936875183889368 1 2 00000000000000000 21012201857962402201410032022000430000000437500000010453000284946828215565           02000000000000000000                             00        
0010001300220H0NIALIA ROUSE SANTOS DA SILVA        2818304539128183045391 1 2 00000000000000000 21012201857962502201410032022001293874001299379000028153000806471828299188           02000000000000000000                             00        
0010001300221H0ALBENIAS RODRIGUES LIMA             0319319636303193196363 1 2 00000000000000000 21012201857962802201410032022000100000000101738000002457000066519828664272           04000000000000000000                             00        
0010001300222H0MARIA LOURENCA SAMPAIO BASTOS       3330639733433306397334 1 2 00000000000000000 21012201857960603201410032022001303665001309517000031497000852651828829501           03000000000000000000                             00        
0010001300223H0GALDINA MARIA COSTA SOUZA           2532197838725321978387 1 2 00000000000000000 21012201857960703201410032022000150000000152596000003668000099267828851523           02000000000000000000                             00        
0010001300224H0JOAO PEREIRA PONTES NETO            4833856735348338567353 1 2 00000000000000000 21012201857960703201410032022001117128001136465000027316000739481828900848           01000000000000000000                             00        
0010001300225H0JOSE LUIS SILVA SANTOS FILHO        5057102834950571028349 1 2 00000000000000000 21012201857960703201410032022002992731003003391000064472001850132828906829           06000000000000000000                             00        
0010001300226H0VALDIONICE COSTA SOUSA              4887952538748879525387 1 2 00000000000000000 21012201856591103201410032019001701653001729509000051454000195791829062001           01000000000000000000                             00        
0010001300227H0VALBENICE COSTA SOUSA               7538731032575387310325 1 2 00000000000000000 21012201856961103201410042022002847411002866767000070182001930286829071967           01000000000000000000                             00        
0010001300228H0NILMA MARTINS                       7432115338774321153387 1 2 00000000000000000 21012201856961103201410042022003103937003116738000076302002098555829078244           02000000000000000000                             00        
0010001300229H0JOSEMAREY DOS SANTOS                8220885939182208859391 1 2 00000000000000000 21012201856961103201410042022001369089001378313000033743000928044829083675           01000000000000000000                             00        
0010001300230H0CELIA REGINA FERREIRA               6643846234966438462349 1 2 00000000000000000 21012201856961103201410042022000223641000227572000005571000153257829085306           02000000000000000000                             00        
0010001300231H0REINALDO FEQUES MORAES              4666133631546661336315 1 2 00000000000000000 21012201856721203201410042020003206700003217060000079794001166519829132397           02000000000000000000                             00        
0010001300232H0MARIA JOSE FERREIRA                 7860847337278608473372 1 2 00000000000000000 21012201856961203201410042022001432071001434003000035083000964843829139758           01000000000000000000                             00        
0010001300233H0THAYNARA CRISTINA SANTOS OLIVE      0253964636002539646360 1 2 00000000000000000 21012201856961703201410042022001006172001023953000022326000531449829379993           01000000000000000000                             00        
0010001300234H0MARIA MADALENA DOS SANTOS PAIV      2574069536825740695368 1 2 00000000000000000 21012201856961803201410042022008473281008489379000176444005265642829443117           01000000000000000000                             00        
0010001300235H0DORALICE SILVA FERREIRA             2929707933429297079334 1 2 00000000000000000 21012201856962003201410042022000080000000081397000002001000054696829570448           02000000000000000000                             00        
0010001300236H0LUIS FERNANDO DOS SANTOS DE JE      9997849035399978490353 1 2 00000000000000000 21012201856962003201410042022001341419001364862000033547000917743829600957           02000000000000000000                             00        
0010001300237H0DIEGO DA SILVA CARDOSO              0036922331400369223314 1 2 00000000000000000 21012201856962103201410042022001077015001092097000026824000733850829633206           01000000000000000000                             00        
0010001300238H0VITA MODESTA PINHEIRO               2825461938728254619387 1 2 00000000000000000 21012201856582103201410022019000967669000975606000029304000084438829663525           01000000000000000000                             00        
0010001300239H0ANDRE LEAL GODINHO NETO             3321460335333214603353 1 2 00000000000000000 21012201856902403201410102021003268747003296449000082536002034454829833598           01000000000000000000                             00        
0010001300240H0MARLETH EWERTON PAIXAO              7260625830472606258304 1 2 00000000000000000 21012201856962603201410042022001330662001340143000029800000857356829958782           01000000000000000000                             00        
0010001300241H0EULALIA CRISTINA FRAZAO LIMA        7339979530073399795300 1 2 00000000000000000 21012201856962603201410042022001565274001577464000038613001056271829984153           02000000000000000000                             00        
0010001300242H0ROSICLER MARTINS SILVA              8682580136886825801368 1 2 00000000000000000 21012201856962803201410042022002884172002895709000070782001936416830084803           02000000000000000000                             00        
0010001300243H0ALBENIAS RODRIGUES LIMA             0319319636303193196363 1 2 00000000000000000 21012201856963103201410042022000670445000682086000016638000455207830150064           04000000000000000000                             00        
0010001300244H0ANGELA MARIA DE CARVALHO RODRI      2819223036828192230368 1 2 00000000000000000 21012201856963103201410042022005024515005038362000107817003158924830155667           03000000000000000000                             00        
0010001300245H0VANIA MARIA GOMES DE SA             2541010532025410105320 1 2 00000000000000000 21012201856960104201410042022001223202001232373000030041000821834830211927           02000000000000000000                             00        
0010001300246H0LEUTRES LUZIA NUNES BOTAO           2259678033022596780330 1 2 00000000000000000 21012201856960304201410042022000200000000203466000004953000135490830336669           02000000000000000000                             00        
0010001300247H0LUSENILDE DE ASSIS PEREIRA          6617864930466178649304 1 2 00000000000000000 21012201856960704201410042022001434372001443889000035052000958881830480331           02000000000000000000                             00        
0010001300248H0MARIA DO CARMO RABELO DOS SANT      3753111538737531115387 1 2 00000000000000000 21012201856961004201410042022001364586001371334000034988000930474830704080           02000000000000000000                             00        
0010001300249H0ANA KARLA PINTO OLIVEIRA            9151082136891510821368 1 2 00000000000000000 21012201856961004201410042022003192390003214448000082012002181163830707807           01000000000000000000                             00        
0010001300250H0ANTONIO JOSE COSTA PEREIRA          9726046084997260460849 1 2 00000000000000000 21012201856961004201410042022002290183002295683000058571001557744830721238           01000000000000000000                             00        
0010001300251H0SELMA CRISTINA LIMA ROCHA           4180579839141805798391 1 2 00000000000000000 21012201855961104201410052022001315294001320888000034433000929333830794828           01000000000000000000                             00        
0010001300252H0MARIA CELMA REIS GARCES             7885609430478856094304 1 2 00000000000000000 21012201855961104201410052022001257963001263557000032939000888938830817134           01000000000000000000                             00        
0010001300253H0FLOR DE LIZ FERREIRA COELHO         2537991737225379917372 1 2 00000000000000000 21012201855961104201410052022001835728001842196000048023001296048830831734           01000000000000000000                             00        
0010001300254H0MARIA DO SOCORRO GOMES MORAES       6582822438765828224387 1 2 00000000000000000 21012201855961504201410052022002176608002185846000056813001533217830961392           01000000000000000000                             00        
0010001300255H0SILVANIRA FERREIRA PINHEIRO         6892582435368925824353 1 2 00000000000000000 21012201855831504201410042021001113928001121739000030527000645081830985976           01000000000000000000                             00        
0010001300256H0JULICIMARY DORNELES CORREA          2907040634929070406349 1 2 00000000000000000 21012201855961504201410052022000716280000720563000018728000505458830998454           01000000000000000000                             00        
0010001300257H0JOSEMIR FERREIRA BELFORT            7360904838773609048387 1 2 00000000000000000 21012201855961604201410052022001736557001741942000039221001142585831071583           01000000000000000000                             00        
0010001300258H0LAIZE DE JESUS RAMOS PAIXAO         8025719430480257194304 1 2 00000000000000000 21012201855961704201410052022001459381001482829000038483001038617831112157           01000000000000000000                             00        
0010001300259H0JOSE LUIS SILVA SANTOS FILHO        5057102834950571028349 1 2 00000000000000000 21012201855962404201410052022000100000000101734000002627000070838831388250           06000000000000000000                             00        
0010001300260H0DORANIRLEI GORETE MARTINS           2905844930029058449300 1 2 00000000000000000 21012201855962904201410052022001221106001226782000031556000851643831570988           01000000000000000000                             00        
0010001300261H0ANA BERNADETE RABELO NUNES          8207174838782071748387 1 2 00000000000000000 21012201855962904201410052022001005703001023093000026317000710196831579627           01000000000000000000                             00        
0010001300262H0JOSE LUIS SILVA SANTOS FILHO        5057102834950571028349 1 2 00000000000000000 21012201855962904201410052022000100000000101728000002617000070588831597124           06000000000000000000                             00        
0010001300263H0AUREA ROSA COSTA MONTES             0910551880609105518806 1 2 00000000000000000 21012201855960205201410052022002420012002441668000062667001691196831718808           01000000000000000000                             00        
0010001300264H0ELIANE MIRANDA SOUSA PEREIRA        4597878637245978786372 1 2 00000000000000000 21012201855690505201410022020001044513001061502000030554000385300831813344           01000000000000000000                             00        
0010001300265H0KARLA ESTHER OLIVEIRA ABREU         9459160131594591601315 1 2 00000000000000000 21012201855760605201410092020002952160002965505000070591001282514831883381           02000000000000000000                             00        
0010001300266H0ADIONEDE SOUZA DOS SANTOS           8068737731580687377315 1 2 00000000000000000 21012201855960605201410052022006985975006994524000178986004830471831897006           01000000000000000000                             00        
0010001300267H0JOAO BATISTA DE LIMA SOARES         8277753535382777535353 1 2 00000000000000000 21012201855960605201410052022001718542001724054000044118001190594831910485           01000000000000000000                             00        
0010001300268H0RAMILSON JOSE SILVA ARAUJO          7701696334977016963349 1 2 00000000000000000 21012201855960905201410052022001369979001389926000030863000899102832109684           01000000000000000000                             00        
0010001300269H0MARY CARLA NASCIMENTO ABREU         8269225436882692254368 1 2 00000000000000000 21012201855580905201410032019001392628001404383000038574000147853832129226           01000000000000000000                             00        
0010001300270H0CONCEICAO DE MARIA BARBOSA E S      6969423077269694230772 1 2 00000000000000000 21012201855960905201410052022001149648001160704000025773000750844832148583           01000000000000000000                             00        
0010001300271H0NILMA MARTINS                       7432115338774321153387 1 2 00000000000000000 21012201854961305201410062022001029002001037890000027036000740032832304187           02000000000000000000                             00        
0010001300272H0JOAO AMERICO RABELO NUNES           0115336931101153369311 1 2 00000000000000000 21012201854961305201410062022001725933001755326000045725001251538832334115           01000000000000000000                             00        
0010001300273H0CELIA RACQUEL RABELO BEZERRA        4094655034440946550344 1 2 00000000000000000 21012201854961305201410062022008501420008528128000179040005503571832335703           01000000000000000000                             00        
0010001300274H0LUCILENE PONTES ALVES               6000897839560008978395 1 2 00000000000000000 21012201854961505201410062022002958602002976380000077417002119052832450426           01000000000000000000                             00        
0010001300275H0RAIMUNDO NONATO BARROS PEREIRA      2387558537223875585372 1 2 00000000000000000 21012201854961605201410062022002625750002649768000068871001885083832548549           02000000000000000000                             00        
0010001300276H0ANA MARIA MORAES FRANCA             8276017932082760179320 1 2 00000000000000000 21012201854601905201410062019001074001001092634000028348000186735832620706           01000000000000000000                             00        
0010001300277H0HILMA MACHADO LIMA                  2723656039127236560391 1 2 00000000000000000 21012201854962005201410062022000357711000363933000009431000258150832738838           02000000000000000000                             00        
0010001300278H0JOSIDEIA DE JESUS FRAZAO DA SI      6748270839167482708391 1 2 00000000000000000 21012201854962305201410062022003754884003779118000097715002674662832963709           01000000000000000000                             00        
0010001300279H0OTANIEL PEREIRA DE JESUS            4075085031040750850310 1 2 00000000000000000 21012201854962805201410062022000894023000909500000023429000641365833234775           02000000000000000000                             00        
0010001300280H0IRLENE MONROE PEREIRA               7044466834970444668349 1 2 00000000000000000 21012201854963005201410062022000290000000295014000007589000207666833410823           02000000000000000000                             00        
0010001300281H0MARIA DOS SANTOS MACEDO SOUSA       3361290031533612900315 1 2 00000000000000000 21012201854960206201410062022000201119000204590000005251000143722833440724           02000000000000000000                             00        
0010001300282H0MARIA LOURENCA SAMPAIO BASTOS       3330639733433306397334 1 2 00000000000000000 21012201854960206201410062022000290505000295518000007585000207566833480995           03000000000000000000                             00        
0010001300283H0LEUTRES LUZIA NUNES BOTAO           2259678033022596780330 1 2 00000000000000000 21012201854960406201410062022008061237008083859000167713005155338833577148           02000000000000000000                             00        
0010001300284H0CASSIO SOUSA MENDES                 0216405530602164055306 1 2 00000000000000000 21012201854960406201410062022001000000001017238000026069000713589833633504           01000000000000000000                             00        
0010001300285H0JOSE ORLANDO COSTA DE SOUSA         1477245030014772450300 1 2 00000000000000000 21012201854960606201410062022000190000000193271000004946000135345833717073           03000000000000000000                             00        
0010001300286H0EDILENE SANTOS SALGADO DIAS         6771296733467712967334 1 2 00000000000000000 21012201854960606201410062022002174663002177934000055732001525522833729327           02000000000000000000                             00        
0010001300287H0JOSE FRANCISCO PEREIRA DINIZ        0126438536601264385366 1 2 00000000000000000 21012201854960606201410062022003515508003548221000090797002485311833730288           01000000000000000000                             00        
0010001300288H0ELIANA DE SOUZA AZEVEDO             0100072739401000727394 1 2 00000000000000000 21012201854960606201410062022001702246001720470000044026001205075833755632           02000000000000000000                             00        
0010001300289H0FRANCINETH SILVA FIGUEREDO          3755718138737557181387 1 2 00000000000000000 21012201854960906201410062022001451262001458480000037239001019282833816446           01000000000000000000                             00        
0010001300290H0FABIO HENRIQUE DOS SANTOS PERE      8826830630088268306300 1 2 00000000000000000 21012201854960906201410062022003842161003904085000099681002728517833843142           01000000000000000000                             00        
0010001300291H0MARIA ANGELICA DE SOUSA COSTA       6506173033065061730330 1 2 00000000000000000 21012201854961006201410062022003177843003192808000081460002229762833930376           03000000000000000000                             00        
0010001300292H0EVANDRO MONROE GARCEZ               9645790239196457902391 1 2 00000000000000000 21012201854721006201410062020000730780000735167000020715000317410833930980           01000000000000000000                             00        
0010001300293H0AURIDEA CARVALHO SILVA              4281381635342813816353 1 2 00000000000000000 21012201853961206201410072022004577178004591119000099973003061901834056951           03000000000000000000                             00        
0010001300294H0LUIS ALBERTO FURTADO FERREIRA       4895947238748959472387 1 2 00000000000000000 21012201853961306201410072022002282021002316919000060309001673411834099921           01000000000000000000                             00        
0010001300295H0EDILSON GAMA SOUZA                  7426021939174260219391 1 2 00000000000000000 21012201853961306201410072022002628978002637846000057407001758237834126219           03000000000000000000                             00        
0010001300296H0SILVIA RUTH BEZERRA BATISTA         8820087634988200876349 1 2 00000000000000000 21012201853961306201410072022001416822001422393000037025001027293834131394           01000000000000000000                             00        
0010001300297H0THAISE MORAES BARBOSA REIS          0032662530500326625305 1 2 00000000000000000 21012201853681306201410032020003036804003040551000077589001076395834134463           01000000000000000000                             00        
0010001300298H0ZENILDE REIS SANTIAGO TEIXEIRA      6745072530467450725304 1 2 00000000000000000 21012201853961706201410072022002051286002062068000053516001484954834316899           01000000000000000000                             00        
0010001300299H0CLAUDEMIRO DO NASCIMENTO RAMOS      4283114839142831148391 1 2 00000000000000000 21012201853841806201410072021002673218002682779000072547001642349834359506           01000000000000000000                             00        
0010001300300H0ELIZANGELA SANTANA NOJOSA SANT      8346479433483464794334 1 2 00000000000000000 21012201853961806201410072022001382758001389541000031249000938700834398671           02000000000000000000                             00        
0010001300301H0JEROS WAGNER ALMEIDA ALVES          7180992933471809929334 1 2 00000000000000000 21012201853962006201410072022001207303001213450000027256000818756834478096           02000000000000000000                             00        
0010001300302H0NUBIA GARDENIA NASCIMENTO FERR      81644787334101646      1 2 00000000000000000 21012201853962406201410072022002123533002160310000055775001547688834572612           03000000000000000000                             00        
0010001300303H0ILDEMAR CASTRO CARVALHO             2972700635329727006353 1 2 00000000000000000 21012201853862406201410092021000442206000449836000012015000283390834596097           01000000000000000000                             00        
0010001300304H0OTANIEL PEREIRA DE JESUS            4075085031040750850310 1 2 00000000000000000 21012201853962506201410072022003272905003282326000084681002349712834662563           02000000000000000000                             00        
0010001300305H0MARIA LEONARDA CASTRO DOS SANT      1768132437217681324372 1 2 00000000000000000 21012201853962706201410072022000268206000272842000007029000181229834782990           02000000000000000000                             00        
0010001300306H0DEISE MARIA MACEDO ANDRADE PIN      74309005349104360      1 2 00000000000000000 21012201853960107201410072022001631342001639568000037224001107487834924383           03000000000000000000                             00        
0010001300307H0ELZI ARAUJO DA SILVA                8053209831580532098315 1 2 00000000000000000 21012201853750107201410102020001408886001431094000039944000711063834955305           01000000000000000000                             00        
0010001300308H0JULIANA PATRICIA GARCES VIEIRA      0112393730301123937303 1 2 00000000000000000 21012201853900307201410012022001688700001717724000044913001139098835072118           01000000000000000000                             00        
0010001300309H0FERNANDA MENDES DA SILVA            6460286930064602869300 1 2 00000000000000000 21012201853960407201410072022003100000003153365000080813001906141835095921           02000000000000000000                             00        
0010001300310H0GENIANE MARIA VERDE PEREIRA         4184908632041849086320 1 2 00000000000000000 21012201853960407201410072022008863978008887864000187741005806200835097237           01000000000000000000                             00        
0010001300311H0VANIA MARIA GOMES DE SA             2541010532025410105320 1 2 00000000000000000 21012201853600407201410072019000193204000196460000005969000043305835115388           02000000000000000000                             00        
0010001300312H0KELLY CRISTINA PEREIRA DE SOUS      6458801734964588017349 1 2 00000000000000000 21012201853600707201410072019001794436001796551000054463000395374835166134           01000000000000000000                             00        
0010001300313H0MARIA DO ROSARIO FERREIRA DA S      0769728731507697287315 1 2 00000000000000000 21012201853960707201410072022001914498001931005000049377001370062835198401           02000000000000000000                             00        
0010001300314H0MARIA REGINA DAS CHAGAS TEIXEI      4940228533449402285334 1 2 00000000000000000 21012201853960907201410072022003365580003376107000073673002234614835302566           02000000000000000000                             00        
0010001300315H0ANTONIO SILVA PAIXAO                1276084633412760846334 1 2 00000000000000000 21012201853960907201410072022002356459002366862000051649001566633835304980           02000000000000000000                             00        
0010001300316H0ILOMAR PEREIRA SANTOS               5303865738753038657387 1 2 00000000000000000 21012201853961007201410072022000839765000850878000021709000602382835323743           01000000000000000000                             00        
0010001300317H0MARIA INES PINHEIRO DIAS MENDE      1000997332010009973320 1 2 00000000000000000 21012201853961007201410072022003326608003337368000072785002207656835327042           02000000000000000000                             00        
0010001300318H0MARIA SILVA SANTOS                  4066967035940669670359 1 2 00000000000000000 21012201853951007201410062022003488100003493528000089402002447125835349240           02000000000000000000                             00        
0010001300319H0ANGELA MARIA SILVA FURTADO          4666237534946662375349 1 2 00000000000000000 21012201853961007201410072022001751126001763705000044999001248564835361514           02000000000000000000                             00        
0010001300320H0ALEXSANDRA ALMEIDA IRINEU           4893761439148937614391 1 2 00000000000000000 21012201852961107201410082022000303558000305569000007972000224080835427570           04000000000000000000                             00        
0010001300321H0ANA DE JESUS MATOS CARNEIRO         8817659274988176592749 1 2 00000000000000000 21012201852601107201410082019001405785001426313000044098000356376835428498           01000000000000000000                             00        
0010001300322H0LUCIMAR DE JESUS PEREIRA            3032355036330323550363 1 2 00000000000000000 21012201852961507201410082022004491467004508012000117255003296677835586430           02000000000000000000                             00        
0010001300323H0MARINILDE ARAUJO PEREIRA            0190079975801900799758 1 2 00000000000000000 21012201852961507201410082022001229145001247951000032460000912582835590303           01000000000000000000                             00        
0010001300324H0ILDILENE RIBEIRO DA CONCEICAO       0073839132800738391328 1 2 00000000000000000 21012201852601707201410082019001101706001115807000034348000277524835760032           01000000000000000000                             00        
0010001300325H0MARINILDES SOUZA DE CARVALHO        5056222330450562223304 1 2 00000000000000000 21012201852962407201410082022001740189001746834000045134001268902836188999           01000000000000000000                             00        
0010001300326H0AUXILIADORA DE JESUS SANTOS         4524195335345241953353 1 2 00000000000000000 21012201852962407201410082022001104528001105978000028576000803363836193143           01000000000000000000                             00        
0010001300327H0ROSANA FERREIRA GODINHO CARNEI      2578845034925788450349 1 2 00000000000000000 21012201852962407201410082022006433404006454368000137173004307112836199014           02000000000000000000                             00        
0010001300328H0RAIMUNDA NONATA CRUZ DE SOUSA       9436693435394366934353 1 2 00000000000000000 21012201852960508201410082022002362538002375583000051962001599545836683415           03000000000000000000                             00        
0010001300329H0MARIA DO LIVRAMENTO SANTOS SIL      2723598039727235980397 1 2 00000000000000000 21012201852960608201410082022002388045002401128000052490001615785836724685           01000000000000000000                             00        
0010001300330H0HAROLDO SILVA SOUSA JUNIOR          9614095032596140950325 1 2 00000000000000000 21012201852850608201410092021000664300000675667000017957000423547836725843           01000000000000000000                             00        
0010001300331H0GRACA MARIA SCRIVENER FURTADO       2521106437225211064372 1 2 00000000000000000 21012201852960708201410082022000214100000217777000005569000156527836783607           02000000000000000000                             00        
0010001300332H0MARIA CRISTINA PEREIRA PASSOS       2692602439126926024391 1 2 00000000000000000 21012201852960708201410082022001689662001698126000038410001159395836807114           01000000000000000000                             00        
0010001300333H0TEONILSON MOURA FREITAS             7451228533474512285334 1 2 00000000000000000 21012201851961208201410092022001984830001993913000045834001402987837009542           02000000000000000000                             00        
0010001300334H0GIOVANNE MORAES COSTA               6418883330064188833300 1 2 00000000000000000 21012201851841408201410092021002229063002242941000060879001435920837128217           01000000000000000000                             00        
0010001300335H0MARLI LINDOSO DINIZ                 0890844330408908443304 1 2 00000000000000000 21012201851962608201410092022001461963001468934000040507001108213837674085           01000000000000000000                             00        
0010001300336H0GILSOMAR TEIXEIRA DOS PRAZERES      0124822533301248225333 1 2 00000000000000000 21012201851602708201410092019001040771001045716000031956000283954837734726           01000000000000000000                             00        
0010001300337H0LUIZA FRANCA PEREIRA FERREIRA       3361303630433613036304 1 2 00000000000000000 21012201851960209201410092022001324939001333456000030255000926118837986733           01000000000000000000                             00        
0010001300338H0VANDA MARIA SOUSA DA SILVA          7049292133470492921334 1 2 00000000000000000 21012201851960309201410092022001891521001904550000043186001321913838026870           01000000000000000000                             00        
0010001300339H0MARIA DO CARMO ARAUJO DINIZ         4276964733442769647334 1 2 00000000000000000 21012201851960309201410092022000726237000738654000020237000553701838028208           02000000000000000000                             00        
0010001300340H0PAULO ROBERTO FERREIRA DA SILV      0106138332601061383326 1 2 00000000000000000 21012201851960909201410092022001084558001089936000027829000792406838280396           03000000000000000000                             00        
0010001300341H0MARIA VITORIA MONROE                3331294039733312940397 1 2 00000000000000000 21012201851960909201410092022001257144001261771000034402000941191838286615           01000000000000000000                             00        
0010001300342H0AMANDA LIMA PEREIRA                 97225134353103547      1 2 00000000000000000 21012201851961009201410092022003760993003764031000077839002505504838372379           01000000000000000000                             00        
0010001300343H0ERLANGE DE JESUS REIS DOS PASS      2723910130427239101304 1 2 00000000000000000 21012201850961109201410102022001313575001329860000037090001026586838419202           01000000000000000000                             00        
0010001300344H0IRANILDE BARROS CALDAS              4665814937246658149372 1 2 00000000000000000 21012201850961209201410102022007412722007426670000153053005050339838459884           08000000000000000000                             00        
0010001300345H0LUCINETE TRINDADE VELOSO            2917167939129171679391 1 2 00000000000000000 21012201850961209201410102022004892749004905226000102981003362947838476976           02000000000000000000                             00        
0010001300346H0VILCILENE SILVA COSTA DOS SANT      7313514336873135143368 1 2 00000000000000000 21012201850961209201410102022004697360004707022000098820003227053838478520           01000000000000000000                             00        
0010001300347H0ANGELA MARIA DE CARVALHO RODRI      2819223036828192230368 1 2 00000000000000000 21012201850961209201410102022003910826003924158000082384002690358838480691           03000000000000000000                             00        
0010001300348H0GLORIA MARIA SOUZA                  1753488737217534887372 1 2 00000000000000000 21012201850961209201410102022006466994006477705000133496004405037838505928           03000000000000000000                             00        
0010001300349H0ANDRE LUIZ CASTELO BRANCO CORD      4179244039141792440391 1 2 00000000000000000 21012201850961509201410102022002177963002180594000051413001569671838572530           01000000000000000000                             00        
0010001300350H0ROSANGELA FERREIRA DOS SANTOS       2498029338724980293387 1 2 00000000000000000 21012201850961709201410102022007871581007897971000162341005356835838668918           03000000000000000000                             00        
0010001300351H0MARIA TEREZA DE JESUS ARAUJO        2383288632023832886320 1 2 00000000000000000 21012201850951809201410092022001182906001193410000028185000849125838740779           02000000000000000000                             00        
0010001300352H0MARIA DO CARMO ARAUJO DINIZ         4276964733442769647334 1 2 00000000000000000 21012201850962209201410102022000447091000454857000011457000335516838902193           02000000000000000000                             00        
0010001300353H0NILA FERNANDA BAIMA FOURNIER        0251539431002515394310 1 2 00000000000000000 21012201850962309201410102022002692248002699451000063318001460629838914759           01000000000000000000                             00        
0010001300354H0CLENIR GUIMARAES DOS SANTOS BE      2723782638727237826387 1 2 00000000000000000 21012201850962309201410102022004663396004693200000097947003198587838930907           01000000000000000000                             00        
0010001300355H0JOSE ALBERTO REIS GARCES            5303857638753038576387 1 2 00000000000000000 21012201850962309201410102022003223800003232970000067472002203387838939389           02000000000000000000                             00        
0010001300356H0MARIA DA CONCEICAO DOS SANTOS       2907687034929076870349 1 2 00000000000000000 21012201850962509201410102022006292377006318108000129326004267373839154893           03000000000000000000                             00        
0010001300357H0ANTONIO MACHADO NETO                6384773635363847736353 1 2 00000000000000000 21012201850962609201410102022003694061003715782000077423002528350839258358           01000000000000000000                             00        
0010001300358H0GLORIA MARIA SOUZA                  1753488737217534887372 1 2 00000000000000000 21012201850952609201410092022000759129000772279000019459000562677839260765           03000000000000000000                             00        
0010001300359H0ISAIAS DE OLIVEIRA SILVA            5901050932059010509320 1 2 00000000000000000 21012201850962609201410102022005060380005092058000106099003464850839292183           01000000000000000000                             00        
0010001300360H0ANA NILA AGUIAR FRAZAO LIMA         4075096530440750965304 1 2 00000000000000000 21012201850720210201410102020000864867000866574000024036000431651839490059           02000000000000000000                             00        
0010001300361H0JOSELIA CRISTIANE COSTA DOS SA      7896273039178962730391 1 2 00000000000000000 21012201850960610201410102022004407788004435145000091915003001620839589601           02000000000000000000                             00        
0010001300362H0JOSEFA SHUELIA GODINHO DE SOUS      4991362032549913620325 1 2 00000000000000000 21012201850960610201410102022002220123002229426000055597001627950839590892           01000000000000000000                             00        
0010001300363H0PAULA ROSA SOUZA SANTOS             47462957353104180      1 2 00000000000000000 21012201850960810201410102022000223417000227285000005280000161162839754738           03000000000000000000                             00        
0010001300364H0JARBAS MAIA MOURA                   9220174138792201741387 1 2 00000000000000000 21012201850960910201410102022003260840003271508000067690002210516839788876           02000000000000000000                             00        
0010001300365H0NILMA COELHO PAVAO                  4086812533440868125334 1 2 00000000000000000 21012201850960910201410102022009007465009038985000183671006060632839794189           04000000000000000000                             00        
0010001300366H0JOSE ORION COELHO MULATO MONTE      2499037032524990370325 1 2 00000000000000000 21012201850721010201410102020001324907001330116000036683000658730839844879           01000000000000000000                             00        
0010001300367H0PALMELITA RIBEIRO FERREIRA          5713322033457133220334 1 2 00000000000000000 21012201850961010201410102022001155767001159739000028839000844402839857288           01000000000000000000                             00        
0010001300368H0MARIA DIONICE COSTA DUARTE          7795214630077952146300 1 2 00000000000000000 21012201850961010201410102022000872673000880431000021893000641078839864627           01000000000000000000                             00        
0010001300369H0EUSAMAR DA CONCEICAO LUZ            2820069134928200691349 1 2 00000000000000000 21012201849961310201410112022001684908001701990000043179001279758839960545           01000000000000000000                             00        
0010001300370H0RUGERBYSON GARCES MELO              6724264235367242642353 1 2 00000000000000000 21012201849961310201410112022002060141002065463000048793001508905839975401           01000000000000000000                             00        
0010001300371H0ELIENNE DO CARMO GONSALVES          6565643130465656431304 1 2 00000000000000000 21012201849961410201410112022001432018001432018000033807001045479840051154           02000000000000000000                             00        
0010001300372H0AGLAILDA BRAGA DE AZEVEDO           1068615036810686150368 1 2 00000000000000000 21012201849961510201410112022001341659001365405000028635000286235840121494           01000000000000000000                             H8        
0010001300373H0MARILDIONERY VIEIRA PEREIRA         8381295432083812954320 1 2 00000000000000000 21012201849961510201410112022001180195001186335000027989000865534840128536           01000000000000000000                             00        
0010001300374H0JAINARIA FERREIRA DA SILVA          8360243735383602437353 1 2 00000000000000000 21012201849961610201410112022003956488003976086000093746002899063840178402           01000000000000000000                             00        
0010001300375H0FRANCISCA DAS CHAGAS ALVES NUN      2710985233427109852334 1 2 00000000000000000 21012201849961610201410112022003341014003355193000070325002328958840203176           01000000000000000000                             00        
0010001300376H0MARIA DE FATIMA SOUSA DOS SANT      0955403332009554033320 1 2 00000000000000000 21012201849962010201410112022004738283004747197000099288003288039840321229           01000000000000000000                             00        
0010001300377H0JOSE TOLENTINO FERREIRA SOBRIN      0891948830408919488304 1 2 00000000000000000 21012201849602010201410112019000613864000618149000017674000187819840332093           01000000000000000000                             00        
0010001300378H0DINORAR FERREIRA CUTRIM             2792734230427927342304 1 2 00000000000000000 21012201849962110201410112022002365095002384032000060137001782351840393479           02000000000000000000                             00        
0010001300379H0ANNEETIENE CARDINALLE VIEIRA R      4056084831540560848315 1 2 00000000000000000 21012201849962110201410112022001900275001933807000040424001338680840397987           01000000000000000000                             00        
0010001300380H0MARIA DA CONCEICAO GARCIA MORA      1979133034419791330344 1 2 00000000000000000 21012201849962110201410112022004878960004889780000102215003384968840424932           02000000000000000000                             00        
0010001300381H0PALOMA AGUIAR OLIVEIRA              9207493632092074936320 1 2 00000000000000000 21012201849962210201410112022001254314001264738000031880000944873840444238           01000000000000000000                             00        
0010001300382H0FRANCISCO DA ROCHA LISBOA FILH      7499849830474998498304 1 2 00000000000000000 21012201849962310201410112022001085752001088667000025552000790190840498409           02000000000000000000                             00        
0010001300383H0MARTINHA MARIA MARTINS SANTOS       2817969235328179692353 1 2 00000000000000000 21012201849502310201410012019003499000003558547000104458000204042840539519           02000000000000000000                             00        
0010001300384H0DOUGLAS PEREIRA DOS SANTOS          3367459038733674590387 1 2 00000000000000000 21012201849962410201410112022001095852001105454000025929000801875840581479           01000000000000000000                             00        
0010001300385H0MANUELLE REIS DE JESUS              64504883368304258194   1 2 00000000000000000 21012201849962410201410112022001385934001410353000029434000974751840599756           02000000000000000000                             00        
0010001300386H0MARIA DA CONCEICAO DA SILVA SA      9545652039795456520397 1 2 00000000000000000 21012201849962710201410112022003542118003553498000074042002451969840643558           01000000000000000000                             00        
0010001300387H0MARIVALDA SANTOS DE OLIVEIRA C      29189306368103553      1 2 00000000000000000 21012201849962710201410112022006684846006687441000136814004578968840657995           04000000000000000000                             00        
0010001300388H0DOMINGAS RIBEIRO DOS SANTOS         2885645733428856457334 1 2 00000000000000000 21012201849962810201410112022002039013002056433000048111001487760840690528           01000000000000000000                             00        
0010001300389H0VIVIANE DAS NEVES TIBURCIO          7920215234979202152349 1 2 00000000000000000 21012201849962810201410112022004404650004418622000092018003047308840700472           02000000000000000000                             00        
0010001300390H0ZILMA SANTOS RODRIGUES              7390162830473901628304 1 2 00000000000000000 21012201849962910201410112022006074130006173234000128489004255058840780176           01000000000000000000                             00        
0010001300391H0ELIS REGINA VIDAL                   0082337535800823375358 1 2 00000000000000000 21012201849963010201410112022000890416000893875000022403000664006840796002           02000000000000000000                             00        
0010001300392H0MORGANA MARIA SILVA PEREIRA         4090055032540900550325 1 2 00000000000000000 21012201849963010201410112022003208196003231464000075503002334870840808509           02000000000000000000                             00        
0010001300393H0ALDENICE ALVES BARROS               7821313432078213134320 1 2 00000000000000000 21012201849963010201410112022003327054003343240000069548002303203840837063           01000000000000000000                             00        
0010001300394H0MARIA DAS DORES REIS CUNHA          1463051638714630516387 1 2 00000000000000000 21012201849963110201410112022002482917002495202000062492001852204840860541           03000000000000000000                             00        
0010001300395H0SYLVANA VALKIRIA DOS SANTOS AR      2805990536828059905368 1 2 00000000000000000 21012201849963110201410112022001668400001673513000039076001208423840885702           02000000000000000000                             00        
0010001300396H0SENEISA DE ALBUQUERQUE SOARES       6587219330065872193300 1 2 00000000000000000 21012201849960411201410112022001763961001779072000041434001281270841005914           01000000000000000000                             00        
0010001300397H0CONCEICAO DE MARIA VIEIRA SILV      2684553939126845539391 1 2 00000000000000000 21012201849960411201410112022003690733003715043000077075002552409841014203           01000000000000000000                             00        
0010001300398H0ALAIDES DA SILVA SANTOS             7041548031070415480310 1 2 00000000000000000 21012201849960411201410112022001503800001509837000035163001087424841020510           01000000000000000000                             00        
0010001300399H0LEIDE MARTINS CANTANHEDE            9376759532093767595320 1 2 00000000000000000 21012201849840511201410112021001173600001176727000028773000738178841047869           01000000000000000000                             00        
0010001300400H0HILMAR DE JESUS PESTANA ALMEID      3043012739130430127391 1 2 00000000000000000 21012201849960511201410112022001333597001347472000031362000969807841066637           02000000000000000000                             00        
0010001300401H0VANIA DE CASSIA E SILVA PEREIR      4283172537242831725372 1 2 00000000000000000 21012201849960511201410112022004867565004916916000101954003376401841084373           01000000000000000000                             00        
0010001300402H0RUTE COSTA GARCIA                   8253202830082532028300 1 2 00000000000000000 21012201849960611201410112022001483423001487018000034587001069594841118036           02000000000000000000                             00        
0010001300403H0DEOLINDO ASSIS SOARES NETO          0111140439901111404399 1 2 00000000000000000 21012201849690611201410082020001034293001037707000027632000471959841121808           02000000000000000000                             00        
0010001300404H0CLAUDIANA SOUZA VILAR               4888020531548880205315 1 2 00000000000000000 21012201849660611201410052020002435034002440095000066388000998807841121977           02000000000000000000                             00        
0010001300405H0MARIA DA ANUNCIACAO CHAGAS COR      2076143033420761430334 1 2 00000000000000000 21012201849960611201410112022007693602007728665000157292005264297841151639           01000000000000000000                             00        
0010001300406H0MARIA DAS DORES DE CARVALHO CO      6577733643465777336434 1 2 00000000000000000 21012201849960711201410112022004494135004508830000093392003092799841188790           01000000000000000000                             00        
0010001300407H0ELIETE DE NAZARE BARBOSA SANTO      0068144334000681443340 1 2 00000000000000000 21012201849961011201410112022004921378004930102000114375003536918841294371           02000000000000000000                             00        
0010001300408H0SHEYLA ROSIANE DE OLIVEIRA SAN      7423295930074232959300 1 2 00000000000000000 21012201849961011201410112022003358103003383257000069965002316948841305097           01000000000000000000                             00        
0010001300409H0LUCY ROZETE BOTAO                   5057029339150570293391 1 2 00000000000000000 21012201848961111201410122022005724656005753429000120853004056955841334823           01000000000000000000                             00        
0010001300410H0SIDNEY GOMES DA SILVA               7702053739177020537391 1 2 00000000000000000 21012201848961311201410122022003472434003487784000073183002456739841483970           01000000000000000000                             00        
0010001300411H0NEUSIFRAN VATANABE RODRIGUES        4882343037248823430372 1 2 00000000000000000 21012201848961311201410122022003250910003259560000068395002295931841501770           01000000000000000000                             00        
0010001300412H0KEPLER RIBEIRO SOUSA                6438292338764382923387 1 2 00000000000000000 21012201848961411201410122022002267565002273850000053646001679744841548471           01000000000000000000                             00        
